:020000022000DC
:10600000000001203D6202009562020097620200DA
:10601000996202009B6202009D6202000000000083
:106020000000000000000000000000009F6202006D
:10603000A162020000000000A3620200A56202004B
:10604000658C0200AB6202002D930200AF62020079
:10605000B1620200B3620200B1910200BD9C020075
:10606000EDA70200FDA70200BD620200BF620200B0
:10607000C1620200C3620200C5620200C762020080
:10608000C9620200B5700200CD620200CF62020058
:1060900051710200D3620200C1D30200D762020034
:1060A000D9620200DB620200DD620200DF620200F0
:1060B000E1620200E3620200A7620200A76202003E
:1060C000E5620200E7620200E9620200EB620200A0
:0C60D000ED62020055A20200F162020025
:1060DC00364937480A1A02D0072291438D46354972
:1060EC0035480A1A06D00722914381F30988022207
:1060FC0082F3148831483249324A00F045F832486C
:10610C003249334A00F040F832483349334A00F000
:10611C003BF833483349344A00F036F833483449B5
:10612C00344A00F031F834483449354A00F02CF840
:10613C0034483549354A00F027F8354835490022AE
:10614C0000F02DF834483549002200F028F8344886
:10615C003449091A082903DB00220260043001606B
:10616C00314A90471F482049884205D002680430C4
:10617C0003B4904703BCF7E700208646EC460020AA
:10618C0000212A4A9047FEE7884207D0521A05D0D0
:10619C00037801300B700131013AF9D17047884214
:1061AC0002D002700130FAE77047000000000120B5
:1061BC0000E000200000012000000120C0F90200D6
:1061CC00E42A0020642B0020F4620200F462020036
:1061DC0048E80200C0F90200E42A0020E42A00206A
:1061EC00C4E90200C4E90200C4E90200C4E90200E7
:1061FC00C4E90200C4E90200C4E90200C4E90200D7
:10620C00C0F9020040FA0200642B0020642B00202D
:10621C00642B0020243D0020243D0020243D002040
:10622C00243D0020245D002061620200E9AF0200E1
:10623C000F484FF00701884385460E4880470E48AB
:10624C00016841F470010160BFF34F8FBFF36F8F92
:10625C00FFF73EBF09480A490A4A884207D0521A3A
:10626C0005D0037801300B700131013AF9D1704738
:10627C00000001209D87020088ED00E078E9020013
:10628C00982A0020E42A0020FEE7FEE7FEE7FEE75E
:10629C00FEE7FEE7FEE7FEE7FEE7FEE7FEE7FEE7CA
:1062AC00FEE7FEE7FEE7FEE7FEE7FEE7FEE7FEE7BA
:1062BC00FEE7FEE7FEE7FEE7FEE7FEE7FEE7FEE7AA
:1062CC00FEE7FEE7FEE7FEE7FEE7FEE7FEE7FEE79A
:1062DC00FEE7FEE7FEE7FEE7FEE7FEE7FEE7FEE78A
:0862EC00FEE7FEE7FEE700BF3C
:1062F4007047000007B5044B0093044A402300F0A4
:1063040032F803B05DF804FB15630200652B00202E
:106314002DE9F84389461446B2B10F4B0F4E0325BD
:10632400002743F00108224609EB0701002005F08D
:1063340047FD0744241A48B933782BB14FF47A4007
:10634400C047013D02D13570BDE8F88301233370A5
:10635400002CE8D1F8E700BFD0E90200642B00204C
:10636400704705F061BDF0B595B01C461646084669
:106374000D4601F03CFE1A9B0D93CDE90864002400
:106384002346082205A928460A948DF82C400C942B
:1063940001F069FE079B0293BDF81830ADF80C308C
:1063A400BDF81A30ADF80E309DF814308DF8114058
:1063B40003F00302012A1DD1BDF81440059EC3F366
:1063C400C203C4F383148DF81030A20008230EA96D
:1063D400284601F048FEC6F3952608AB00932246F2
:1063E40002AB0EA9304600F071FB284601F003FE13
:1063F40015B0F0BD022AF8D1BDF81640C3F3C203AC
:10640400A4098DF810300827082C264628BF082632
:106414003B4632460EA9284601F025FEA41B08ABD4
:1064240002AA31460EA8374400F0B4FB002CEBD18D
:10643400DBE7000010B5054CFFF793FF042120466D
:1064440000F0B4FA0123637210BD00BFE42A0020F7
:10645400037813F0030F03F0040202D012B91046BC
:106464007047B2B103F00303012B03D0022B09D010
:10647400012070470A6800880232C0F38310024486
:106484000A60F5E70B684288023303EB92130B6052
:10649400EEE70B684288013303EB92130288F4E7BA
:1064A4002DE9F04F89B00546861C08A8484C019296
:1064B40000230F4600F8113D01F050F923683B60BA
:1064C400D4E901231344226801339B1A04F21C47C4
:1064D40004F5836A04F21448B3421AD3019A0023E0
:1064E400002A6DD0012262F3010343F0040365F333
:1064F40089132168A2689DF80F000A4003320E44F4
:1065040044F82230266001F04DF9012009B0BDE8BD
:10651400F08F0121384601F0DDF9504601F0F0F921
:10652400404601F0EDF90DF120096068D4F808B097
:1065340049F8100D00EA0B00033004EB80004946D3
:10654400FFF786FF049BB0B90BEA030204EB820257
:10655400D16805919A1C013303EA0B0B04EB8B0CF5
:1065640001F00303012B0492DCF80CB020D0022BC1
:1065740004D083460BE00BEA0300DDE7BDF81630D8
:106584009B0903334FEA1B4B02EB930304934046EE
:1065940001F0B9F908B1049B63605946384601F02B
:1065A40099F9D4E901231344226801339B1A93E730
:1065B400BDF81430C3F383134FEA1B4B1344E5E7D0
:1065C400022262F3010343F0040365F39F5390E74F
:1065D400782C002008B50E4B0E48FF229A6000224A
:1065E400C3F81824C3E90022C3F8142483F8202430
:1065F40001F0B6FC38B9084A084B09499B1ADB0874
:1066040002469A4200D108BD21F822200132F8E75F
:10661400782C002038E90200A0E8020038E90200E2
:10662400982A002030B50B4C79B10B4A0B49121B48
:10663400D20800239A4201D1002030BD01EB83052A
:106644006D88854202D00133F4E7034654F83300E1
:10665400F3E700BFA0E8020038E90200982A00200E
:10666400094B013903EBC000032909D8DFE801F025
:106674000A02040604207047007970474079704785
:106684000020704702207047A0E80200034BD3E9C2
:106694000030C31A58425841704700BF782C00207C
:1066A4002DE9F04387B0FFF7F1FF0746002840F0DB
:1066B400F5807B4DC5F81804BFF34F8F6868AC684C
:1066C4000DF1180848F8100D2040033005EB800048
:1066D4004146FFF7BDFE029B064600285FD104EA4F
:1066E4000302991C013305EB8202234005EB83036B
:1066F400D268DB68049302F00303022B0392029135
:1067040062D1BDF80E3067484FEA9318B8F1500FC4
:10671400C14628BF4FF0500969F38F1309F10801EE
:10672400ADF80E3001F034FC0746002800F0A480D8
:1067340001F05DFC334603A90822384601F06AFCE7
:10674400029924EA01060136B600B14535D95FFA4B
:1067540089F97EB3F6B2A9EB0609214003315FFA49
:1067640089F4B146504E05EB810108234A46384668
:1067740001F050FC36B109F108032246314638468F
:1067840001F048FC029B08F1030803EB9803029311
:10679400D5F81834002B4AD1D5F8104458E02A68AB
:1067A4009A4204D86A60384607B0BDE8F08304EA28
:1067B40003008AE73C493446D7E7214003310823E4
:1067C4004A4605EB8101DAE7012B55D1BDF80C30BF
:1067D4003448C3F38311062928BF062161F38913C2
:1067E40002318900ADF80C3001F0D2FB07460028D5
:1067F40042D001F0FCFB3346082203A9384601F0DD
:1068040009FCBDF80C20C2F38312B31C96424FEA74
:106814008303BDD202994A1C21400331029205EB45
:1068240081010422384601F0F5FB0136E9E73846D8
:1068340001F0E1FBFFF72AFF80F00100C7B2B2E7E5
:10684400637A23B1236839461B68204698476468F5
:10685400002CF5D1384601F0CEFB06A800F8114D06
:1068640000F07CFFD5F818340BB9029B6B609DF8DF
:10687400070000F097FFDDE7D5F8104444B90B4B4F
:106884000B491888000440F0020000F06BF8D1E7CF
:10689400236820469B6898476468EFE7002782E7EF
:1068A400782C002038E90200842C0020B82A00202B
:1068B400E4E902002DE9F74F284C80460F46924642
:1068C40001A9012218469B46D4F80890FFF7E8FD79
:1068D40088B3019D0026A91C5E4506EB010234D154
:1068E40000211F4800F0CBFF80F310006A1C02EA6D
:1068F400090204EB8202000405EA0903033340EAB7
:106904001840D06014F8232068F3C50204F823204B
:1069140034F8232066F3891224F8232054F8232022
:10692400012167F39F2244F8232061F301026FF3EE
:10693400820204F8232094F820341BB1FFF7B0FE40
:106944000028FBD103B0BDE8F08F09EA020204EB92
:1069540082025AF82630D3600136BDE7782C002035
:106964009430002000231A46FFF7A4BF13B502ACED
:10697400012344F8042D2246FFF79CFF02B010BD0A
:1069840007B5CDE9002302236A46FFF793FF03B05E
:106994005DF804FB1FB5CDE90123069B039301AA0F
:1069A4000323FFF787FF05B05DF804FB0F4A30B5FA
:1069B400D2F810440023214641B90372D2F810449E
:1069C4004CB9C2F810044160184630BD0D7A9D429E
:1069D40005D04968F0E7626842606060F4E701331B
:1069E4000A2BE8D14FF0FF33EEE700BF782C0020EC
:1069F400084A38B50123D2F8104482F820341D46E1
:106A040004B938BD2368657220465B68984764689A
:106A1400F6E700BF782C0020037A052B10B50C464E
:106A24000FD0437A23B1084A0849204600F0CCFF2E
:106A34000749204600F0C8FF2046BDE8104000F09A
:106A4400B8BF002AF8D0F3E73FEA020044EA0200A4
:106A5400D4F20200C38873B504460D4633B1144A18
:106A640000921449144A284600F0AEFF217A052901
:106A74001CD0637A4BB1A088FFF7F2FD0F4B10498D
:106A840053F82020284600F09FFF227A0D4BA0885F
:106A940053F822600021FFF7C5FD0B490346324637
:106AA400284602B0BDE8704000F08EBF02B070BD51
:106AB4003FEA02004FEA020047EA02000CEA020041
:106AC40044EA020074EA020067EA02002DE9F04396
:106AD40085B01F460C9D002306460C46904695F84B
:106AE4000C902B7329463846FFF7B4FFB8F1060F14
:106AF40009D8DFE808F00412181F28334000314693
:106B0400284600F061FF002229463846FFF784FF3B
:106B140085F80C9005B0BDE8F0832268314628461C
:106B240000F052FFEFE7D4E900233146284600F095
:106B34004BFFE8E7A36800933146D4E900232846D5
:106B440000F042FFDFE7E3680193A3680093314656
:106B5400D4E90023284600F037FFD4E723690293E1
:106B6400E3680193A36800933146D4E900232846DF
:106B740000F02AFFC7E76369039323690293E3687C
:106B84000193A36800933146D4E90023284600F01A
:106B94001BFFB8E708292DE9F84F80460E46174633
:106BA4001C4636D8002593F80C901D7319461046E0
:106BB400FFF750FFDFF87CA0DFF87CB0AE422AD9A3
:106BC40018F805205946204600F0FEFE0135082D30
:106BD400F4D11649DFF864B0204600F0F5FE002534
:106BE400AE421DD918F805A0504607F085F90028D3
:106BF40014BF52462E225946204600F0E5FE0135C8
:106C0400082DEDD1012221463846FFF705FF84F80F
:106C14000C90BDE8F88F5146204600F0D5FED5E72C
:106C24000349204600F0D0FEE9E700BF3AEA02003B
:106C340038EA020036EA020030EA02003CEA0200C6
:106C44002DE9F04F3B4F89B000263B4B1B78F5B242
:106C5400AB4202D809B0BDE8F08F384B196811F87F
:106C640035000124A0F12002C0F1200304FA02F946
:106C740024FA03F349EA0309D7E9002304FA00F8E4
:106C8400CDE9042302EA080203EA0903134301EBF2
:106C9400C50B4CD0DDE9042322EA080223EA0903E8
:106CA400C7E90023079102F077FA0799844611F89F
:106CB4003500A0F12002C0F1200324FA03F304FA02
:106CC40002F21A4304FA00F300931D4B0192DDE92A
:106CD4000045D3E9002314401D4022462B465FFAA9
:106CE4008CF40025CDE90445049CA0F12005AC40BA
:106CF4000394049CC0F1200124FA01F1039C0C4389
:106D04000499039481400291DDE90245AB4208BF36
:106D1400A2420CD19BF801104B1E59425941A1EBE0
:106D24000C02DBF804305142514103B1984701365B
:106D34008BE700BFD03000209C300020D8300020EA
:106D4400C83000202DE9F84F0646244800F0DAFB4D
:106D5400002841D10123A6F12001C6F1200203FA43
:106D640001FB23FA02F203FA06FA1D4BD3E90001F0
:106D74004BEA020B00EA0A0801EA0B0958EA090285
:106D84001F4623D1304602F007FA164BB8B1D3E9B7
:106D9400000140EA0A0441EA0B05C3E90045D7E9CA
:106DA40000234BEA0305104B0C4819684AEA020415
:106DB400C7E900450022BDE8F84F00F05FBBD3E906
:106DC400000120EA0A0421EA0B05E6E720EA0A04A6
:106DD40021EA0B05C3E90045BDE8F88FA430002083
:106DE400D0300020C8300020A0300020042A2DE933
:106DF400F34105460C4616463AD901F0F7FFD8B1DF
:106E04001C4B1D491D601D4BDFF884801C701C4BFE
:106E140000221E600023C1E900231A49C1E90023AE
:106E2400013CE4B200260327FF2C0CD1164A174874
:106E3400002100F011FB03E001F0A0FF0028DFD0E7
:106E440002B0BDE8F08123B205EBC30201A9927838
:106E54008DF8052015F833008DF8066042468DF84C
:106E6400047002F0B9F8013CE4B20028DCD0E7E792
:106E74000720E5E7D8300020C83000209C300020EF
:106E8400A0300020D0300020456C0200D4EA02007B
:106E9400496D020070B5084D084E00242B789C42C1
:106EA40001D3002070BD3368012113F8340002F0CF
:106EB4000BF90134F2E700BF9C300020D8300020E9
:106EC40070B5094D094E00242B789C4204D3084820
:106ED400BDE8704000F016BB336813F8340002F0CC
:106EE40039F90134F0E700BF9C300020D83000208D
:106EF400A43000201FB50021039001AA44F2010030
:106F0400CDE9011100F004F805B05DF804FB0000C0
:106F140010B572B6FFF76CFDFFF7C2FB0028FBD17A
:106F2400104C11492088000440F00100FFF71AFDBD
:106F34000E4B1B68DB0700D500BE20880C490004FB
:106F440040F00200FFF70EFDBFF34F8F09490A4BD3
:106F5400CA6802F4E0621343CB60BFF34F8F00BFF3
:106F6400FDE700BFB82A0020D8EA0200F0ED00E0F7
:106F7400E4EA020000ED00E00400FA0549B152B170
:106F8400531E1A4007D1826001608380C26010469C
:106F940070470E2070470920704710B58468C26896
:106FA4008388121B934208D3C26813400268D154E9
:106FB400C3680133C360002010BD0420FCE782686D
:106FC400C3689A420AD08268838813400268D35CFB
:106FD4000B7083680133836000207047052070477D
:106FE400094A537891780133DBB2994208BF0023F0
:106FF400117899421FBF03705078182303FB0020B7
:1070040014BF043000207047DC30002073B50546FF
:1070140002A8002400F8014D0E4600F09FFB0DF17C
:107024000600FFF7DDFF90B106700A4B9DF80620BD
:1070340045605A709DF8070000F0B4FB24B9064B74
:107044004FF48012C3F80021204602B070BD04241E
:10705400F0E700BFDC30002000E100E0024B4FF419
:107064003C6043F00103184700EB020038B50C4BB9
:107074000C4C4FF40032C3F8802001254FF48033C8
:10708400C4F84833C4F808336560FFF7E7FF064BDC
:10709400A56000241C60FFF7E1FF044B1C7038BDA1
:1070A40000E100E000100140F8310020E931002047
:1070B400F8B51F4B1F491B680025C1F84051C1F8A2
:1070C4004451C1F84851C1F84C51C1F80051C1F8BC
:1070D40004514BB3D1F8044517490968641A24F0E4
:1070E4007F442F461A68A24209D8A41A15441A7C70
:1070F400DE691AB11F74D3E905209047AEB90F4B6E
:107104000F4A197813788B4205D10133DBB2022B75
:1071140008BF0023137012780A4B43F822500A4B1D
:107124004FF48012C3F80021F8BD3346DAE700BFFC
:10713400FC31002000100140F8310020F43100201F
:10714400F5310020EC31002000E100E02DE9F74F9B
:107154009E4A9F49137809789E4D99423CD0013349
:10716400DBB2022B08BF002313709B4912789B4BA0
:107174000F6853F822003B1823F07F4300220B6072
:107184002B6816461446944613B942B12B6006E0A8
:10719400196881420ED902B12B60091A19604FF0A7
:1071A40001082B68DFF83CA200930027BEB9DFF882
:1071B4003CB260E0401A0C44D968C3F800C0D3F86C
:1071C4001CE031B13A1922F07F42C3E90121DE61AA
:1071D4001E4601227346D7E70026B046E1E734464F
:1071E400F6697D4A63681268DFF804C2A068991AD8
:1071F40021F07F41614500F2A58001442160012214
:1072040022742A680023C4E90133E361002A40F0B0
:10721400A2802C60CAE75A1C9BF80210D2B2914299
:107224008BF8002004BF00228BF80020182202FBF8
:1072340003B32A6819799C68022974D003297ED083
:10724400012918D1217CB1B9DA6862601A69A26097
:107254005A699B69A361624BE2601B78002BC0D022
:107264006160BEE79C4200F093809946DB69002B85
:10727400F8D1002323749BF800309BF801209A4234
:10728400C9D12B682FB9009A934202D1B8F1000FEB
:1072940043D0002B79D0D3F800A0524D4E4BD5F8F3
:1072A40004751C68DFF84C813E1B98F8003026F00A
:1072B4007F4603369BB94FF48033C5F84433C5F891
:1072C4000433494B4FF400324FF00109C3F88021D5
:1072D4001A60C5F80090FFF7C1FE88F80090B24527
:1072E4002CBF5444A41924F07F44C5F84045D5F874
:1072F4000435DB1B23F07F43E41B033324F07F447A
:10730400A3420AD9D5F80435C5F84035FFF7A6FEDF
:10731400354B4FF40032C3F80021314B00221A7070
:1073240003B0BDE8F08F13469146A0E71174D2690B
:107334000123002AFAD1002B9DD02A609BE7002369
:107344001946F6E7D31A23F07F43834234BFC31AA6
:107354000023236053E721681368994213D8591A0C
:107364001160E26155E7091AD8691A4638B1034633
:1073740018688842F7D3401A1860184613462160EB
:10738400E061DC6112E71346F2E7FFF76FFEC4E742
:107394004C450DD1D3692B6053B90F48019201219B
:1073A400CAF8081003600E4B1970FFF757FE019AD4
:1073B400E1692368C9F81C1011B1086803440B6023
:1073C4002B689A4218BF012753E700BFF43100200D
:1073D400F5310020FC310020F8310020EC31002090
:1073E400E83100200010014000E100E0DC30002022
:1073F400FEFF7F00E931002008B5FFF737FE104B90
:1074040000200B2218809A700E4B18600E4B1870D7
:107414000E4B18700E4B4FF48012E021C3F88021FC
:1074240083F814131A6002F18042A2F56F22C2F8A5
:10743400080583F81113074BD2F804251A6008BD18
:10744400DC300020FC310020F4310020F531002034
:1074540000E100E0F8310020074B9B784BB132B1DA
:1074640028B10368187C20B959745A617047072001
:1074740070470820704700BFDC3000202DE9F74337
:107484001D4FBB7805460E4690469BB390B3042926
:107494002ED9436973B3437C02A80024012B00F85E
:1074A400014D0CBF8946A14600F058F90DF10600C4
:1074B400FFF796FDD0B101230370104B4560D3F85C
:1074C4000435C0E90498C0E902369DF806307B70A3
:1074D4009DF8070000F066F924B9094B4FF48012B7
:1074E400C3F80021204603B0BDE8F0830424EFE78D
:1074F4000724F7E70824F5E7DC30002000100140FA
:1075040000E100E0064A92783AB130B1426922B112
:10751400002202740221FFF779BD0820704700BFE2
:10752400DC300020014BD3F8040570470010014003
:10753400401A20F07F4070470648074A03780749FD
:10754400D35C012213B1043002F034BB0C3002F0DE
:1075540013B900BFF02A0020BC32002028320020DA
:107564000648074A03780749D35C012213B1043063
:1075740002F0D0BA0C3002F0A9B800BFF02A002003
:10758400BC3200202932002037B50578012D04D003
:1075940035D3022D28D003B030BD43681F4C197871
:1075A4002046FFF7FAFC78B11D4B01908DF800508E
:1075B4001B6868469847A168E368A2885B1A9A42E8
:1075C4000ED3FFF7B9FFE6E7A268E3689A42F2D068
:1075D40002AB134A03F8080D126818469047EAE70D
:1075E400104B01221A70D6E7C36801938DF800503E
:1075F400FFF7A2FF0A4B1B6868469847CBE70A4986
:107604000A48FFF7DCFC10B9FFF7AAFFC3E702A89A
:10761400032300F8083D024B1B68EEE70432002008
:1076240000320020143200202932002018320020B9
:10763400F0B51F46234B89B006461A600C46002954
:107644003DD08A8820480968FFF798FC002834D187
:10765400A289A1681D48FFF791FC00282DD11C4D7B
:107664000FCD6C460FC495E80F0084E80F007369D2
:107674000693337C174A18488DF81C70003318BFE2
:1076840001238DF81430737C002B14BF0E230023C8
:107694008DF81530F3680293B3680393336801934C
:1076A40069467368009301F065FA30B90B4B1870A2
:1076B4003368013301D0FFF73FFF09B0F0BD072065
:1076C400FBE700BF00320020043200201832002003
:1076D40008EB02008D750200F02A0020143200200D
:1076E40070B5084C014608482678FFF768FC054643
:1076F40036B100232370FFF71FFF08B1FFF7FAFB31
:10770400284670BD143200200432002010B5014612
:107714000E48FFF742FC0446A8B90D480D4A037809
:10772400D35C63B1043002F039FA60B90A490748FE
:10773400FFF745FC38B9BDE81040FFF711BF0C3026
:1077440002F00EF8F1E7204610BD00BF1832002009
:10775400F02A0020BC3200202932002070B5EFF35B
:10776400108672B60C4A946801239CB993600B4B43
:107774000B4DD3F8801029401160C3F88050D3F822
:10778400841051604FF0FF32C3F88420047006B9AE
:1077940062B670BD0370FAE72C32002000E100E00D
:1077A400FC06FFBD084B9A6810B55AB150B9EFF307
:1077B400108272B605491C680C605C684C60986065
:1077C40002B962B610BD00BF2C32002000E100E017
:1077D40037B550E8023F1FFAA3F5C488A54202BF9B
:1077E400BFF32F8F00220DE0C48925448489A5426C
:1077F40028BF2D1BC3EA054540E80254002CE8D1FC
:107804004FF001028DF803200193019B9DF80320A2
:107814000B6002F0FF0322B14B880068184403B0E8
:1078240030BD1846FBE70A884B889A4209D150E8D4
:10783400022FC2EA224240E80223002BF7D10120A2
:1078440070470020704701F01F024B09012191404D
:1078540000EB830000F01DB801F01F0301229A40E1
:107864004B0900EB8300D14300F029B84B0901F028
:107874001F0150F82300C84000F00100704750E891
:10788400002F0B4640E8003C9CF0000FF7D1104657
:10789400704750E8003F43EA010240E8002C9CF0A6
:1078A400000FF6D11046704750E8002F02EA01039A
:1078B40040E8003C9CF0000FF6D11046704750E8B9
:1078C400003F03EA010240E8002C9CF0000FF6D1CF
:1078D4001046704750E8003F03EB010240E8002CDB
:1078E4009CF0000FF6D11046704750E8003FA3EB20
:1078F400010240E8002C9CF0000FF6D110467047BE
:107904000121FFF7C6BF0021FFF7CEBF10B590B12C
:10791400D0E9012301689B1ADBB20A60013BDBB2A8
:10792400FF2B026802D10020107110BD11684C1C9D
:1079340014600B70F2E70E20F7E737B5054602A88E
:10794400002400F8014DFFF709FF2A686B681168ED
:1079540099420ED9481E106011F8014CEB68A98AAF
:1079640001FB0434AB6811791B1ADBB2994238BFAE
:1079740013719DF80700FFF715FF204603B030BDD3
:1079840037B5054602A8002300F8013D0C46FFF771
:10799400E5FE2A681368591C1160E968641AA98A0B
:1079A400B4FBF1F41C709DF80700FFF7FBFE03B075
:1079B40030BD826810B504462AB143690168006984
:1079C40098470023A36010BD0EB403B5039929B1F1
:1079D40002AA04AB42F8043D00F06AF802B05DF874
:1079E40004EB03B07047826830B40468551C8560AA
:1079F400A154D0E901329A4202D330BCFFF7D9BF77
:107A040030BC70472DE9F84F9946DDE90A43174623
:107A1400824688460A460126BA420FD24E4538BFEE
:107A24004E4613F0010B01D164B900240125B9F1CC
:107A3400010F1AD909F1FF397D43F8E7B2FBF7F2D8
:107A44000136E9E79B070ED5B9F1000F0CBF3025CD
:107A54002025A642EAD2013C29465046FFF7C3FF3F
:107A6400002CF6D1E1E72025F3E7B8FBF5F39F42BC
:107A7400E2D9DFF83890B8FBF5F3504619F8031053
:107A840005FB1388FFF7AFFFB5FBF7F5002DF2D127
:107A9400BBF1000F02D00CB1A64201D3BDE8F88FB0
:107AA40020215046013CFFF79EFFF4E728EB02003B
:107AB4002DE9F74F054690460E46002900F03A811D
:107AC40016F8011B002958D0252940F0D180002741
:107AD40002E047F001071646324612F8013B2D2B0F
:107AE400F7D0302B04D02B2B05D147F00407F2E755
:107AF40047F00207EFE700242A2B06F101021BD10D
:107B0400D8F80030191D1B68C8F800101C4416462C
:107B140033782E2B1CD101364FF0000A314611F870
:107B2400012BA2F13000092814D80A2303FB0A23ED
:107B3400A3F1300A0E46F1E712F8013CA3F130013B
:107B44000929E5D80A2101FB0434303C1646D3E761
:107B54004FF0000A324612F8011B01F0FB006828BE
:107B64001646F8D0692916D054D8582970D00ED8A2
:107B740025297DD03378002BA2D12B7B002B00F05C
:107B8400D980284603B0BDE8F04FFFF712BF632940
:107B940068D06429EED1D8F80020D2F80090111DE5
:107BA40089EAE972C8F80010A2EBE9724FF0010B00
:107BB400092A61DCD34538BFD3462CB1B9F1000F93
:107BC40001DB790700D5013CBA0702D5BAF1000FF1
:107BD40004D0FB0702D4002C54D10024B9F1000FC7
:107BE40058DAC9F100092D212846FFF7FCFE07F0F9
:107BF4000302022A05D1BAF1000F02D1002C4DD1A3
:107C04000024CDE9004753460A2249462846FFF797
:107C1400F9FEAFE7732954D016D87029AAD1D8F841
:107C240000301A1DC8F80020302128461C68FFF7D0
:107C3400DAFE78212846FFF7D6FE00220823CDE994
:107C4400003221461022E1E775292FD0782991D1FD
:107C5400D8F800100A1DC8F80020CDE900475346A3
:107C640010222CE0D8F800301A1D1978C8F800202A
:107C74002846FFF7B8FE7DE70A230BF1010B92FBC0
:107C8400F3F295E7A345A9D220212846013CFFF74A
:107C9400AAFEA0E77807AAD52B21A5E7A345B0D271
:107CA40030212846013CFFF79EFEA7E7D8F80010D4
:107CB400CDE900470A1DC8F8002053460A22096886
:107CC400A4E7D8F800301A1DC8F80020F907D3F843
:107CD400009012D54F46A7EB090B17F8011B41B9C9
:107CE400A345BFF447AF20212846013CFFF77BFEA4
:107CF400F6E72846FFF777FEEDE7B9F1000F17D056
:107D0400484606F0D4F90746BC4200D954B909F1F3
:107D1400FF3919F8011F00293FF42CAF2846FFF75B
:107D240062FEF6E720212846013CFFF75CFEEBE704
:107D34004F46E9E703B0BDE8F08F00002DE9F041BC
:107D440008B10368C3B90E4E0E4B14229B1B0024CA
:107D5400B3FBF2F3374602FB03F5A54201D1002041
:107D640008E03B5930190BB91434F6E7DB6998473E
:107D74000028F9D0BDE8F081DB69BDE8F04118477F
:107D8400E42A0020E42A002029DF704728DF704716
:107D940070B503689D6886B004460E466DB1142222
:107DA4000021684606F007F9A36805932379019634
:107DB4002BB1012B0DD06846A84706B070BD012336
:107DC4008DF8003023690293E36803936369049395
:107DD400F1E702238DF80030E3681B030293F5E713
:107DE400034B187A0122B0FA80F05A7440097047A4
:107DF4003832002070B5244D244E2B7A2C463BB9E2
:107E040023492448FFF7E4FC306008B9686070BD7A
:107E14000223237233681A7972B1012A24D01846D6
:107E24000321FFF7B5FF0023237263601849194843
:107E3400BDE87040FFF7F7BCD3E90520121AB2F58C
:107E4400805F28BF4FF48052D3E903159208012ABA
:107E5400014438BF01222844FFF796FF50B111288E
:107E6400DDD101232372D2E7D3E903021044FFF7E3
:107E74008DFFF3E7237C002BC9D10146BDE8704098
:107E8400022000F009B800BF383200205032002030
:107E94004C320020042B002038B5831E012B45D81A
:107EA400234C237A002B41D0022B09D1032830D054
:107EB400204B1B680022E2601A793AB1012A22D0D1
:107EC400637C7BBBBDE83840FFF794BFD3E9051260
:107ED4008D1AB5F5805F94BF521902F580529A61EC
:107EE4009142EDD102284FF0000308BF19462372D6
:107EF400104B18BF0D211868FFF74AFF0E490F48B1
:107F0400FFF791FCDCE71A6901321A615B699A4256
:107F1400E7E7E3680133082B01D8E360D0E70023E7
:107F2400E360DFE7BDE8384005F01EBA38BD00BFA6
:107F340038320020503200204C320020042B002024
:107F440000F0FD03012B08D1044B00225A74421E99
:107F5400504250411874FFF74DBF7047383200202B
:107F6400FFF7D4BCF8B546790146721E05460023D6
:107F740093422D6803D30024A64202D8F8BD0133EE
:107F8400F6E70F682846FFF7FBFC01343946F3E7B0
:107F94002DE9F843868ACD1C0746FFF7CEFC043E44
:107FA40035440446B5FBF6F5F0B14FF48073EDB2F9
:107FB4008380C680013D076081464FF00008A845D4
:107FC40012D23846FFF7B9FC064648B1637901334B
:107FD400637108F10108C9F8000007608146EEE703
:107FE4002046FFF7BFFF34462046BDE8F883012151
:107FF4000430FFF76FBC10B5012104460430FFF7CD
:1080040074FC10F0FF0F04D12046BDE81040FFF7C8
:10801400A9BF10BD2DE9F843C7880546181D884639
:10802400B0FBF7F4164607FB14003CB9A7EB0009B4
:10803400B14528BFB14626B9BDE8F8832D68013C97
:10804400F3E70430A6EB09064A4608EB040128448A
:1080540005F088FFB7424C442D68B9464FF0000044
:1080640028BFB146E7E72DE9F843C7888846191DBC
:108074000546B1FBF7F4164607FB14113CB9A7EB10
:108084000109B14528BFB14626B9BDE8F8832D687A
:10809400013CF3E704312944A6EB09064A4608EB00
:1080A400040005F05FFFB7424C442D68B9464FF019
:1080B400000128BFB146E7E7064B10B500241C7049
:1080C400054B1C60BFF35F8F0449054800F00AF8B4
:1080D400204610BD5C3200206032002054EB0200C8
:1080E400543200200B684A684360934208BF00235F
:1080F400016008BF43607047436843B102689168F8
:1081040052680B449342436004BF002343607047AA
:108114000D4930B5A1F594720225914201D8002091
:108124000EE08B1ADB1093FBF5F302EBC30452F859
:108134003330834205D802D204F10802EDE76068C7
:1081440030BD2146E9E700BFA4EC020008B5FFF703
:10815400DFFF024B002808BF184608BD69EB020088
:1081640010B50446C0B2FFF7D1FA204610BD2DE980
:10817400F8430468054694F8200002F03FF904F13E
:108184001807FF264FF0FF394FF00008207AFF2828
:1081940002D002F033F92672607AFF2802D002F08E
:1081A4002DF966722068431C03D000F08BFEC4F8DE
:1081B400009084F80B800C34BC42E7D16868BDE8B9
:1081C400F84302F09DBA00002DE9F041134DDFF8A9
:1081D40050800E460024012705EB41052B5D5BB161
:1081E4002B5D013BDBB22B552B5D93B958F8263040
:1081F4001B683046DB6998474CB167B1084B53F8AC
:10820400263002215868BDE8F04102F0E5BA0124A5
:10821400E4E70027F0E7BDE8F08100BF7D320020ED
:108224006432002040680C4902798B5CDBB2FF2B7E
:108234000DD0FE2B0DD0006803F5A87350F8233041
:10824400064850F82200984203D1FF238B540020A3
:1082540070470120704700BF783200208832002028
:1082640003682DE9F74F904693F82120022A05462A
:108274000F4640F099800C244C431A1952689045DB
:1082840009D1DB691BB9002003B0BDE8F08F426857
:1082940010799847F7E7FFF7C5FF8346002840F0B9
:1082A40085806B68DFF810911B79FE2209F80320A2
:1082B4002E6896F8200002F047F9CA46B8F1000F7C
:1082C4001FD13444607A02F03FF9207A02F00EF9AB
:1082D4006B681B79FF2209F803200C2303FB076654
:1082E4002B68C6F80480DB69002BCCD06B681A7944
:1082F4002F4B03EB42030221D955686802F059FA67
:10830400C1E7B169884507D334441FFA81F8207A5C
:1083140002F01AF9607AD9E707EB47094FEA8909AD
:1083240006EB090368685A68914238D0002A36D0AF
:10833400904534D25B46032102F00CFA6B6896F840
:1083440020B01B6856F80900344403F5A673019362
:10835400A37A0BB300F01AFE02460199584602F0C4
:1083640083F896F8200002F0C1F86B68114A1B7973
:108374000AF8037042F823800C2404FB07640023EA
:1083840042463946686802F0E5F9207A02F0AEF810
:10839400607A02F0ABF8A0E700F0EAFDDCE70379CD
:1083A400FF220AF80320E7E708206DE711206BE7B6
:1083B4007D320020883200207832002003681B8B35
:1083C4005A436423B2FBF3F292B2FFF749BF0000B1
:1083D4002DE9F04F89B0044603928946002900F044
:1083E4002081066896F82130002B40F01C8101F0B2
:1083F4004DFC08B1852821D100F0F8FC00B38B4B6B
:108404001B6803F0F003302B20D10023884A00219D
:108414001370FF234FF0FF3286F82030F17233726D
:1084240073723260F17532757375F26006F1200073
:1084340001F090FF60B12046FFF799FE042519E092
:1084440000F09CFC0028DAD0032513E00123DDE7CB
:1084540007464FF00C0B59F82720FBB20293531C2C
:1084640000F08580256895F8211049B1082520463B
:10847400FFF77DFE284609B0BDE8F08F0127EAE743
:1084840009EB07030BFB07F893F808A0049205EB2C
:1084940008031046596083F80AA04FF003038DF8CF
:1084A4001830BAFA8AF35B098DF8193006A901234A
:1084B4008DF81A30059300F0A3FCB0B9049A059B1B
:1084C40045F8082093404FF0A042BAF1000F00F0A5
:1084D4009A80C2F80C350BFB07F303F1080028441B
:1084E400049301F037FF049B08B10425BFE703F1AF
:1084F40009002844049301F02DFF049B0028F4D1C3
:108504002B440493187A02F01FF8049B587A02F063
:108514001BF855F80800BAF1000F77D000F036FDCB
:10852400824655F8080000F023FD63680BFB0755ED
:108534001B6807F1500103EB810180465246287AFB
:1085440001F092FF6368687A1968424601F5A471E4
:1085540001F08AFF0123EB726368364A1B790299A2
:1085640002EB430320460022DA55FFF779FE002F81
:1085740084D0D9F810200023B2F5805F01D3092BF1
:108584004CD12B4A127812B1002B08BF01238DF86D
:10859400183000238DF819308DF81A306068264A97
:1085A40007238DF81B300379079306A902F020F8FE
:1085B400054600287FF45BAF6068D9F81070036843
:1085C400D3F810253F01D2B2D7404FF00108B7616C
:1085D40002F0BCF804233A4602216068CDF800801A
:1085E40002F0D1F80221606802F0F6F8039BF3610F
:1085F4006368124A1B7986F8218042F82340104AA6
:10860400FF21D15436E7C2F8083564E700F0B0FC26
:10861400824655F8080000F0B9FC86E75208013399
:10862400AAE70B2526E7082524E700BFE80F00F09A
:108634009C3200207D320020CD8102006432002073
:10864400783200202DE9F0470768DFF868900026AB
:1086540005463C46B0464FF00C0A6B681B7909EBA3
:10866400430303F80680E37A73B12B6820680AFB9E
:108674000633997AB1FA81F1490900F095FC206832
:1086840000F052FCC4F804800C3476B16868084ADF
:108694000379FF21D15402F059F8686802F016F802
:1086A400022387F82130BDE8F0870126D5E700BF13
:1086B400783200207D3200202DE9F0470646D0E9CB
:1086C400007002F011F80221706802F085F897F842
:1086D400200001F039FF3C4600254FF001094FF01E
:1086E4000C0A4FF0A048E37A8BB1336820680AFB88
:1086F400053309FA00F29B7A8BB9C8F8082500F013
:1087040025FC207A01F020FF607A01F01DFF0C3473
:108714001DB187F82150BDE8F0870125E3E7C8F8CB
:108724000C25ECE70C4B1B78062B10D10B4B1B686C
:108734001A070CD10A4B186800F0F003302B08D04C
:1087440000F0E000A0F14003584258417047002077
:1087540070470120704700BFE00F00F0E40F00F005
:10876400E80F00F0094B1B78062B0CD1084B1B6853
:108774001A0708D1074B186800F0F000A0F1300385
:108784005842584170470020704700BFE00F00F086
:10879400E40F00F0E80F00F008B5FFF7C3FF28B1BD
:1087A4007D4B7E4A1B68C3F304231360FFF7DAFF93
:1087B40010B17B4B7B4A1A60FFF7B4FF28B17A4BA8
:1087C4007A4A1B68C3F342331360FFF7CBFF20B12F
:1087D400774AD36823F08073D360FFF7A3FF40B1D7
:1087E4004FF080430022C3F80C21C3F81021C3F8D2
:1087F4003825FFF7B7FF10B16E4B03221A60FFF75D
:10880400B1FF40B16C4B05221A6001229A67002225
:108814009A603F225A60694B1B78062B50D1684BF3
:108824001B6819074CD1674B1B6803F0F003502BEE
:1088340046D14FF08052644BD2F80414C3F820158B
:10884400D2F80814C3F82415D2F80C14C3F8281568
:10885400D2F81014C3F82C15D2F81414C3F8301538
:10886400D2F81814C3F83415D2F81C14C3F8401500
:10887400D2F82014C3F84415D2F82414C3F84815C8
:10888400D2F82814C3F84C15D2F82C14C3F8501598
:10889400D2F83014C3F85415D2F83414C3F8601560
:1088A400D2F83814C3F86415D2F83C14C3F8681528
:1088B400D2F84014C3F86C15D2F84424C3F87025D8
:1088C400FFF730FF28B1414B414A1B6803F04F03C7
:1088D4001360FFF727FF48B14FF08043D3F800241B
:1088E400D20744BF6FF00102C3F80024394B1B6860
:1088F400062B08D1384B1B68062B01BF374A136877
:1089040043F480631360364AD2F8883043F470032A
:10891400C2F88830BFF34F8FBFF36F8F4FF010232F
:10892400D3F80022002A03DBD3F80432002B2FDA19
:108934002C4B0122C3F80425D3F80024002AFBD0D1
:108944004FF010221521C2F80012D3F80024002A97
:10895400FBD04FF010231522C3F80422214B1A46F2
:10896400D3F800140029FBD00021C3F80415D2F871
:108974000034002BFBD0BFF34F8F19491A4BCA6840
:1089840002F4E0621343CB60BFF34F8F00BFFDE7F7
:10899400164B174A1A6008BD2403001040350140E5
:1089A40074C007400DF0ADBA440200103C0500400D
:1089B400F0ED00E0A005004010560040E00F00F08C
:1089C400E40F00F0E80F00F000C00040580200106F
:1089D400E40E004030010010340100103C17004048
:1089E40000ED00E000E001400400FA05182B00202F
:1089F4000090D00338B5084C04F10803054600285C
:108A040018BF1C4623682BB11A6822605B6828468D
:108A14009847F7E738BD00BFA832002020B9054BBE
:108A240001225A70FFF7E6BF012802D1014A907073
:108A3400F8E77047A032002020B9034B01225A7096
:108A4400FFF7D8BF704700BFA032002038B50B4CE9
:108A5400237883B90A486360A3602361E36000F06C
:108A6400D1F8054604F090FC08B900F0D9F80123C8
:108A74002370284638BD8525FBE700BFA0320020BF
:108A8400218A020037B502A80023094C00F8013DF1
:108A9400FEF764FEE368013BE360E56815B900F0A6
:108AA400D3F8A5709DF80700FEF77CFE03B030BD37
:108AB400A0320020012813B509D003D303281BD00A
:108AC40002B010BD0F4B0122C3F88020F8E702A8C2
:108AD40000230D4C00F8013DFEF740FE23780BB94E
:108AE400FFF7B4FFE3689DF807000133E360012357
:108AF400A370FEF757FEE3E700F092F8FFF7C2FF1A
:108B0400DEE700BF00E100E0A03200201FB50378DB
:108B14008DF8003043680193037A8DF80830C368F8
:108B24000393054A054B684653F8213052F8211047
:108B3400984705B05DF804FBB4320020B832002039
:108B44001FB503788DF800304368019383688DF86E
:108B54000830C3680393054A054B684653F821302F
:108B640052F82110984705B05DF804FBB432002098
:108B7400B8320020F0B5194B067891F81DE043F89F
:108B84002620174B94460A6943F82620154B03F810
:108B940006E00C4607460FCC89B06D460FC594E835
:108BA4000F0085E80F000496BEF1000F0AD0BCF157
:108BB400000F0D4A694608BF0022381D00F0E2FE8E
:108BC40009B0F0BDBCF1000F084A694608BF002295
:108BD40007F10C0000F0BAFCF2E700BFB832002045
:108BE400B4320020BC320020118B0200458B0200FD
:108BF40000F18040002382B0036003680193019B6D
:108C040002B07047054A137933B90121106093719A
:108C1400117153711846704785207047C032002087
:108C2400084B1A68D20706D4E02283F800230122F5
:108C3400C3F880211A604FF080430022C3F818253E
:108C4400704700BF00E100E0044B01221A604FF0BE
:108C54008042D2F81834DB03FBD470470C00004088
:108C6400244B1B6810B573B14FF48070FFF7C0FF3D
:108C74004FF080430122C3F808231F4B587910B9E1
:108C84005A711B6898471D4B1B6863B14FF482707F
:108C9400FFF7AEFF4FF080430222C3F80823164BC0
:108CA40001201B689847164B1B6863B14FF488700A
:108CB400FFF79EFF4FF080431022C3F808230E4BAA
:108CC40002201B6898470F4B1B6893B10E4B002280
:108CD4001A604FF48670FFF78BFF4FF08043082132
:108CE400C3F80813044B03209A71BDE810401B68B5
:108CF400184710BD00010040C032002004010040AC
:108D0400100100400C010040340C004000F1804090
:108D140000F5C040002382B0036003680193019B07
:108D240002B07047800000F1A040D0F8003723F46F
:108D34004033C0F80037D0F8003743EA0141C0F8A7
:108D440000177047054B4FF0FF32072843F82020E7
:108D540084BF1B1883F84820704700BFC832002026
:108D6400C208054900F0070001238340885C20EA1B
:108D740003008854704700BF1C33002010B5174C03
:108D840094F8583043BBFF21E2180133202B82F8BA
:108D94003010F9D10021C8B2FFF7D4FF01310C29FA
:108DA400F9D1042200210E4805F005F90D4BE0220B
:108DB40083F806234022C3F880214FF4BE701A6062
:108DC400FFF7A4FF084B4FF00042C3F8042301232C
:108DD40084F85830002010BD0820FCE7C832002079
:108DE4001C33002000E100E000600040034B93F8D6
:108DF4005800003018BF0120704700BFC83200205F
:108E040030B52E4C231893F93020013253D18A788F
:108E1400002A4CD0002354F8235001354FEA830232
:108E240040D1251802F1804202F5C04285F8303065
:108E3400002544F82350D2F810550B784C7825F4CB
:108E440098151B04240525F4F85504F4801403F440
:108E54004033C2F8105523430402D2F8105504F4E9
:108E6400F85423432B43C2F810354A780123012ACE
:108E74004FF0A04203FA00F30CBFC2F80835C2F861
:108E84000C3500F5E073032142F82310C2080C49A5
:108E9400012300F0070003FA00F08B5C18438854A8
:108EA400002003E00133082BB5D1042030BDFE229D
:108EB40083F83020D9E70820F8E700BFC832002043
:108EC4001C33002038B516490D18044695F83000B7
:108ED400072809D8FFF736FF95F93030114A03F512
:108EE400A273002042F823000B19FF2201EBD401E6
:108EF40083F8302091F85420012304F007018B40BB
:108F04001A420BD004F5E0724FF0A043022143F85B
:108F140022102046BDE83840FFF722BF38BD00BF0D
:108F2400C832002000600040074B184490F93030EC
:108F34009B0003F1804303F5C043D3F8102542F0AE
:108F44000302C3F810257047C8320020074B1844A9
:108F540090F930309B0003F1804303F5C043D3F80C
:108F6400102522F00302C3F810257047C8320020F0
:108F7400054B184490F930000C308000C0B200F169
:108F8400804000F5C0407047C8320020054B1844AB
:108F940090F9300018308000C0B200F1804000F534
:108FA400C0407047C83200200A4B1844003190F981
:108FB40030304FEA830303F1804303F5C04318BF05
:108FC4000121D3F8102522F4801242EA0152C3F899
:108FD40010257047C8320020F0B5394D2C1894463E
:108FE40094F93040002C68DA8E78C6F34006002EDF
:108FF40015BF0023082308270C27BB4201D10420F6
:10900400F0BD55F8232001324FEA830441D12F18D3
:1090140045F823C087F8303016B9EA1882F84800BA
:109024008A78560716D4D70735D5820002F1A042B4
:10903400D2F8006726F00206C2F80067214FC6087E
:1090440000F0070C012202FA0CF217F806C042EAFB
:109054000C02BA558A780E7812F0020224D004F178
:10906400804303F5C0430002D3F8102522F44732AD
:1090740022F44072C3F810253604D3F8102500F406
:10908400F85006F4403630431043C3F8100500206E
:10909400B6E70133B1E74E7800F5E0724FF0A04730
:1090A400B60047F82260C9E7083B2B4493F8500008
:1090B40040EA861683F85060E9E70820A0E700BF7D
:1090C400C83200201C33002038B5204C251895F9EF
:1090D4003020072A18DD224492F848309B09032BDC
:1090E4000DD14FF0A043D3F81035C34013F0010F56
:1090F4000CBF02210321BDE83840FFF713BE012B4A
:1091040014BF03210221F6E7D3B2072B1CD8930026
:1091140003F1804303F5C043D3F8100540F0010088
:10912400C3F8100502F14000800080B2FFF7EEFDA5
:1091340051B195F9303054F823302BB1012303FA9F
:1091440002F2034BC3F8042338BD00BFC832002029
:10915400006000400E4B034493F93020072A02DDDF
:109164000021FFF7DFBDD3B2072B10D8930003F122
:10917400804303F5C043D3F8101521F00101C3F86F
:109184001015012303FA02F2024BC3F808237047B7
:10919400C8320020006000404FF0A043D3F81035DF
:1091A40023FA00F000F00100704700002DE9FF47AA
:1091B4000024584A584E594D019401211368A2F5D0
:1091C400C040012B80B206D1D6F804330B4202D042
:1091D400FFF79CFD0C430432AA424FEA4101EDD152
:1091E4004F4B1B68012B0AD14FF4BE70FFF78EFD65
:1091F4004FF0A04344F00044D3F81035019314F029
:10920400FF0F1AD0474F00250126344210D0AB007F
:1092140003F1804303F5C043D3F81005D3F81015C8
:1092240057F82530C0F30420C1F3014103B1984736
:109234000135082D4FEA4606E7D1002C66DA0022F4
:109244004FF0FF33CDE90223DFF8D8900127002641
:1092540034464FF0A04809EB060393F95020531C01
:1092640045D0D2B222F0C005E90804A8084402F0AF
:10927400070310F804CC07FA03F31CEA030F36D0F3
:1092840009EB050C92099CF930C059F82CA0BAF1ED
:10929400000F0AD1032A2AD10DF1080E1EF801C0CD
:1092A4004CEA030C0EF801C001E0032AF4D005F5E2
:1092B400E07110F80C0C58F821101842C1F3014168
:1092C40005D0022913D1032A0BD1114604E0032946
:1092D4000DD1032A05D102212846FFF723FD0134CD
:1092E400E4B2BAF1000F02D011462846D047013645
:1092F400042EB0D154B14FF0A043019AD3F81035E5
:10930400934203D00193029B0393A0E704B0BDE80A
:10931400F08700BF00610040006000402061004011
:109324007C610040C8320020014B1B68184700BF15
:10933400243300200D4B984237B50D4610D102A8B6
:10934400002300F8013DFEF709FA094B1C7914B912
:1093540001221D601A719DF80700FEF723FA14B963
:10936400002003B030BD1120FBE700BF0020004007
:10937400243300200023435082B043580193019BBF
:1093840002B070470A4610B54FF48E71FFF7F2FF32
:10939400136A9168C95C136A01331362C0F81C151F
:1093A40010BD024608B54FF492710068FFF7E2FF62
:1093B4004FF484711068FFF7DDFF136801221A600F
:1093C40008BD8B690A4610B54FF4847123B9FFF7C1
:1093D400D1FFD0F8183510BDFFF7CCFF536AD16820
:1093E400D0F81805C854536A01335362F3E70000F8
:1093F4001FB501238DF80030044BCDE90110D3E9EA
:1094040000126846904705B05DF804FB2C33002039
:1094140030B54C4AD2F8043313F4007F85B01546B6
:109424004FD0D2F82431002B4BD04FF49271104618
:10943400FFF7A0FF4FF40173C2F80833424B93F8CF
:10944400291009B9012151603E4902228DF80020FA
:10945400D1F88024C1F8802403929A690292DA68D0
:1094640001920022C3E906226846D3E9001290471C
:109474003448D0F81C315BB133490A6A4B699A42CB
:109484000A464BD291F82830002B47D1FFF77AFFD8
:109494002C4AD2F8443193B14FF4A2711046FFF72D
:1094A40069FF294B93F8291009B1012111609A69C8
:1094B4002AB100229A61586AD968FFF799FF05B06A
:1094C40030BDD5F804335B07D2D5D5F80831002B6D
:1094D400CED01D4C1B482146FFF773FF636AA26977
:1094E4009A422346C4D1E269E1684AB12369E36040
:1094F4000023606AA261E3616362FFF779FFB7E763
:1095040094F829200AB901226A600E4A4FF40170C6
:10951400C2F8080300229A61586AEEE74FF48E718C
:109524000848FFF727FF51690029B1D000230291B1
:1095340091688DF80030019153616846D2E90013B7
:109544009847A5E7002000402C3300202DE9F8437C
:109554005A4B047991462C2202FB0432064692F8B7
:109564002A200D469846002A40F0A38054490068FA
:10957400FFF7E0FE0746002840F09D802968336825
:10958400481C0BD04FF0A04001228A40C0F80825A7
:1095940001F5E0724FF0030C40F822C06868421CE9
:1095A4001FBF00F5E0724FF0A04C4FF0000E4CF8D6
:1095B40022E0AA6995F814C0C3F824256A7DBCF199
:1095C400010F4CEA0202C3F86C25C3F81405C3F872
:1095D4000C151DD1AA68511C1FBF02F5E0714FF094
:1095E400A0404FF0000C40F821C0E968481C0BD0A3
:1095F4004FF0A04C01208840CCF8080501F5E0703C
:109604004FF0030E4CF820E0C3F80815C3F81025FA
:109614002C23634308EB0302C2F804902A6948F838
:109624000320B9F1000F31D04FF48E7130682D7FD3
:10963400FFF7A0FE30684FF4A271FFF79BFE32687B
:10964400204BC2F80433120B53B2002BA8BF03F112
:1096540060404FEA53134FEA4511BABF1A4802F06B
:109664000F0500F561404FEA8303C9B203F160437B
:10967400B4BF415580F8001303F5614302F01F02A3
:10968400012101FA02F2C3F880211A60336804222E
:10969400C3F800252C2303FB04830022C3E906221C
:1096A40083F829205A61012283F82A203846BDE82C
:1096B400F8830827FAE71127F8E700BF2C330020C6
:1096C400159402008000020014ED00E02DE9F84337
:1096D400224F06794FF02C0909FB06748046656910
:1096E400002D37D16261A16025624FF48E7100684C
:1096F40084F82850FFF73EFED8F800000123836069
:109704002146FFF73FFE6368A1462BBBD8F8005003
:10971400226A63699A4212D3D8F80030D3F81C2124
:10972400002AFBD00122DA6000202C2303FB0676FA
:1097340000237361BDE8F88394F8283043B9D5F861
:109744001C31002BF8D049462846FFF71BFEDFE703
:109754000F20EAE71120EDE72846EBE72C33002041
:109764000379044A2C2101FB03235869003018BFF4
:10977400012070472C3300202DE9F843384E057939
:109784002C2303FB056307465C6824B103684FF48C
:109794000170C3F808032C2303FB0563986950B1D7
:1097A400D86900283ED024B13B684FF40172C3F855
:1097B4000423112034E09A61D9605862D8612C23C3
:1097C40003FB056393F829301BB910B93846FFF73A
:1097D400E8FD4FF02C0909FB05683868D8F8043017
:1097E400002B34D14FF4A271FFF7C4FDC146386891
:1097F400D0F82431D0F80821D0F84441B2B90CB9DA
:10980400002BF4D02C2202FB05650022AA611BBBAD
:1098140024BB95F829103B680122B1B11A600020DD
:10982400BDE8F8831961DA610120C8E7002BE9D1AA
:10983400002CE7D14946FFF7C4FDD8F82430D8F806
:1098440018209A42D3D82346DCE75A60E7E74FF45E
:109854000173C0F80433E2E70320E1E70F20DFE7F8
:109864002C3300200023435082B043580193019BC2
:1098740002B070471FB501238DF80030054B8DF8F9
:10988400080001916846D3E90012904705B05DF8DD
:1098940004FB00BF583300207FB5384AD2F8246156
:1098A400002E49D010464FF49271FFF7DBFF0223DC
:1098B4008DF80030D2F88034C2F880340393D2F8A3
:1098C4003C358DF808302E4BDA6801920022C3E94A
:1098D40006226846D3E900129047284AD2F8443158
:1098E40073B14FF4A2711046FFF7BCFF244B996982
:1098F40031B100219961D2F83C05D968FFF7BAFF6C
:109904001E4AD2F82031ABB14FF490711046FFF7E4
:10991400A9FF1B4B596969B1D2F84C158DF8081091
:10992400002299688DF8002001915A616846D3E9B4
:109934000012904704B070BDD2F81031002BCCD087
:109944004FF488711046FFF78DFF0D4BD2F83C059C
:1099540099698842C1D1DC69D96864B1D2F80052EE
:1099640025F02005C2F800521A699C61DA60DE61B4
:10997400FFF780FFB1E79C61FAE700BF00200040D9
:10998400583300202DE9F8435E4B06799146242292
:1099940002FB0632044692F820200D469846002A1F
:1099A40040F0AB8058490068FFF7C4FC0746002824
:1099B40040F0A58029682368481C0BD04FF0A040D4
:1099C40001228A40C0F8082501F5E0724FF0030C2B
:1099D40040F822C06868421C1FBF00F5E0724FF0D7
:1099E400A04C4FF0000E4CF822E0AA6995F814C080
:1099F400C3F824256A7DBCF1010F4CEA0202C3F8C6
:109A04006C25C3F80C15C3F814051DD1AA68511CA4
:109A14001FBF02F5E0714FF0A0404FF0000C40F87A
:109A240021C0E968481C0BD04FF0A04C01208840AD
:109A3400CCF8080501F5E0704FF0030E4CF820E077
:109A4400C3F80815C3F810252423734308EB030255
:109A5400C2F804902A6948F80320B9F1000F3BD0FA
:109A64004FF4887120682D7FFFF7FCFE4FF490714E
:109A74002068FFF7F7FE4FF492712068FFF7F2FEBB
:109A840020684FF4A271FFF7EDFE22681F4BC2F865
:109A94000433120B53B2002BA8BF03F160404FEA0A
:109AA40053134FEA4511BABF194802F00F0500F5E8
:109AB40061404FEA8303C9B203F16043B4BF415527
:109AC40080F8001303F5614302F01F02012101FA3B
:109AD40002F2C3F880211A6023680822C3F8002523
:109AE400242303FB06830022C3E906225A610122D0
:109AF40083F820203846BDE8F8830827FAE71127C1
:109B0400F8E700BF583300209D98020010030200BC
:109B140014ED00E001F06043B3F1005F2DE9F04182
:109B2400074632D11C4B0679242505FB0635984699
:109B34006C6964BB6A61A96000684FF49071FFF7B7
:109B440091FE4FF4AC713868FFF78CFE3B686A698C
:109B5400A968C3F84415C3F8482501229A606A68C5
:109B6400BAB9D3F82011D3F8582149B9002AF8D04A
:109B74000F20242303FB068600237361BDE8F081D4
:109B8400002A14BF0F200020F3E71020F6E711206D
:109B9400F4E72046F2E700BF583300200379044A73
:109BA400242101FB03235869003018BF01207047AA
:109BB40058330020F8B501F06043B3F1005F044668
:109BC4000F465ED10379304D242101FB03514868CF
:109BD40020B121684FF40476C1F80863242101FB05
:109BE40003539E6956B1D969002939D020B123683D
:109BF4004FF40472C3F80423112030E09A61DF604B
:109C0400DE614FF488712068FFF72CFE4FF4A271D7
:109C14002068FFF727FE2368C3F83475C3F8382596
:109C240016BB01221A602279242101FB02514968E2
:109C340009BBD3F81041D3F84411D3F8240114B963
:109C440009B90028F5D0242303FB025500239842C8
:109C540014BF032018469942AB6118BF0F20F8BD0A
:109C64001F61DA610126CCE7D3F8002242F020021A
:109C7400C3F80022D7E74FF40472C3F8042300208A
:109C8400EDE71020EBE700BF58330020034B1878B2
:109C940010B901221A707047852070477C33002068
:109CA40000F1804000F5E040002382B003600368C7
:109CB4000193019B02B07047F0B5514B514C1B68A6
:109CC40085B0DBB14FF4827094F82E20FFF7E8FFE3
:109CD40012B194F82F30A3B1636802932389ADF8CD
:109CE4000C30E36800218DF80410002B44D1237458
:109CF400236801A89847002384F82F3094F82E3065
:109D040003B3414B1B68EBB14FF48070FFF7C8FFFE
:109D140094F82D20638B91B28B4238D95B1A218938
:109D24009BB26383CB1A616801EB4301374BC3F8E1
:109D34002C16C3F830264FF48270FFF7B1FF344B72
:109D440001221A60334B1B685BB14FF48870FFF734
:109D5400A7FF002304A82374022300F80C3D236802
:109D640098472D4B1B6813B34FF48A70FFF798FF85
:109D74000023237405B0F0BD208B608363602081D1
:109D8400E160002AB4D1214B01221A60B0E7D2D19C
:109D9400E368012184F82F103BB1002161831B4942
:109DA400C1F82C36C1F83026C5E76383C3E766697A
:109DB4004FF000470125002EDCD0B6FA86F227FAD0
:109DC40002F34632920026EA030602F1804303F5C9
:109DD400E0431B68002BEED01046FFF761FFA2F5AD
:109DE4008C72D30882F00402C2F380028DF808302A
:109DF4008DF804508DF80920236801A89847DAE704
:109E04000471004080330020007100400070004065
:109E140004700040107100401471004038B51D4BAF
:109E2400044693F82C0098BB1B4A19602178C2F8A9
:109E3400F0156178C2F8F415E5781874012183F8F7
:109E44002C1083F82D00586183F82F0083F82E50CE
:109E54006FF00043C2F808334FF48270FFF720FF1D
:109E64004FF48070FFF71CFFA3780C485B01DBB252
:109E740080F807338023C0F8803103600223C2F8DE
:109E840004330DB1C2F80413C2F80015002038BD24
:109E94000820FCE7803300200070004000E100E06F
:109EA4002C4B1A7C70B502F0FF05002A4FD10A79B9
:109EB400012A9CBF284CC4F8005500F10C0503EBA3
:109EC4004504247924B993F82D40013483F82D40B6
:109ED40003EB4503CC790D7A8E781C715D714B7858
:109EE40036021B0106F4E06603F0300333430E78B8
:109EF40006F003063343CE78360306F48056334324
:109F0400160406F4E02633434E798979360506F4BF
:109F140080160906334301F080710B430E4901EBAF
:109F24000016000100F1804000F5E040012AC6F867
:109F34001835C0F81455C0F81045C0F81455C0F8C9
:109F4400104502D80123C1F80035002000E011209B
:109F540070BD00BF8033002000700040264A274BAC
:109F640070B505461220C2F808031C7C022C03D1EC
:109F7400C2F80403112070BD187C01281DD1D868D3
:109F840018B10223C2F80433F4E7DD60198393F8AF
:109F94002E3063B91A4A1368002BFCD04FF480703A
:109FA400FFF77EFE144BC3F82C56C3F83016124B41
:109FB4000222C3F804230020DDE7022093F82E4098
:109FC400C2F80403012600201E745D601981D86064
:109FD4003CB1598393F82D30C2F82C56C2F8303670
:109FE400C9E7C2F82C564FF48070C2F83016FFF758
:109FF40057FE20461660BEE7007000408033002004
:10A0040000710040084A137CDBB2012B09D192F89D
:10A014002E0018B1054A002013607047044A1360EB
:10A0240070470820704700BF803300200070004054
:10A03400047000402DE9F041464C2379002B40F098
:10A0440087808779467A027C77B9012E03D1012A69
:10A054000AD1072072E0022E06D1082A04D840F261
:10A064005513D340DB07F4D4C5683B4B90F8078005
:10A0740090F808E090F80AC0C3F80475C3F8248582
:10A08400C3F820E5C3F81C65C3F828C5C3F8182530
:10A09400002D55D1C3F8105590F800E090F801C098
:10A0A4004FF0A0430EF5E0760CF5E072002F4DD191
:10A0B400032543F8265043F822508678FF2E1FBF0D
:10A0C4004FF0A04306F5E072032543F82250C2780E
:10A0D40008BF4FF0FF36FF2A1FBF02F5E0754FF0AF
:10A0E400A043032743F82570037908BF4FF0FF32DC
:10A0F400FF2B1FBF03F5E0774FF0A0454FF000089A
:10A1040045F82780144D08BF4FF0FF33C5F864E5C8
:10A11400C5F868C5C5F86065C5F87025C5F86C351F
:10A1240043790E4A21605B01DBB282F82533202398
:10A13400C2F884315360012323710020BDE8F0810B
:10A144000122C3F81455C3F81025A5E70025B0E78C
:10A154000820F3E7B03300200050024000E100E0A3
:10A1640030B5354B1A79012A85B00D465FD10268A6
:10A1740022B102F06041B1F1005F5AD1416821B1CE
:10A1840001F06041B1F1005F53D15979003218BF39
:10A19400012262F3000159714268DD80111C5A7971
:10A1A40018BF012161F3410202F0F3026FF30412BC
:10A1B4005A7103C8214A82E80300D3E90241204AC4
:10A1C4000020C3E90400C2F85055C2F83845241AE7
:10A1D40018BF0124C2F80845C2F84015091A18BF6F
:10A1E4000121C2F80C1501240221C2F8004519719D
:10A1F40014490860096803910399134908600968C0
:10A2040002910299114908600968019101995979EB
:10A2140001FA04F3090103F0020301F020010B43E6
:10A2240043F00403C2F80433146005B030BD0820C1
:10A23400FBE71020F9E700BFB0330020B83300205B
:10A24400005002400451024014510240085102409F
:10A25400F0B5394B394C1A6885B07AB100221A60CE
:10A264001B680093009B637943F0080303F0120218
:10A27400122A637104BF43F020036371304B1A68E0
:10A284007AB100221A601B680193019B637943F041
:10A29400040303F01102112A637104BF43F0200385
:10A2A4006371284B1A68B2B100251D601B680293C4
:10A2B400029B254B25480422C3F808232946C3F8EA
:10A2C4000055236898472368214829469847012365
:10A2D400237105B0F0BD637903F00F020F2A08D093
:10A2E400D80701D4190704D462799207F1D45B0723
:10A2F400EFD56379266803F0F30313F0200708D041
:10A3040003F0D30343F01003637101210020B0472D
:10A31400DFE70E4A92E8030002AD85E8030012E984
:10A32400030043F0100382E80300C4E90277637179
:10A3340001212846EBE700BF14510240B03300204E
:10A34400045102400851024000500240C033002032
:10A35400B83300202DE9F74F4FF0000ADFF898904A
:10A36400204E07460425D0465FFA8AFB01240DF1EE
:10A37400070004FA0BF48DF80780FDF7EFF914EAEF
:10A38400090F08D0336814EA030201BF2343336082
:10A3940087F800B015469DF80700FDF703FAD5B914
:10A3A400114B1249188800045A4640F00300FCF788
:10A3B400DDFA0D4B28461C88FDF7C8FE240444F042
:10A3C400030403460A4A0B492046FCF7D9FA2846F7
:10A3D40003B0BDE8F08F39EA04090AF1010AC3D1D8
:10A3E400E7E700BFC8330020B82A002000F10200CC
:10A3F4008AF0020017F10200FFFF010037B50125C2
:10A404008540C5F3100313B3124B02A80024C3F80C
:10A41400085500F8014DFDF7A1F90F4A9DF8070012
:10A42400136823EA05051560FDF7BCF90B4B2046BC
:10A434001D88FDF78BFE2D0445F003050346084AED
:10A4440008492846FCF79CFA204603B030BD07248F
:10A45400ECE700BF00F00140C8330020B82A002018
:10A46400A1F0020017F1020073B50B4689B382B361
:10A4740001248440C4F31001174E31B3174909680D
:10A484000C4224D0C4003588154904F1804404F5F5
:10A49400F8342D04C4F81035C4F81425009202468B
:10A4A40045F00300FCF776FA002435882046FDF7D2
:10A4B4004DFE2D0445F0030503460A4A0A49284681
:10A4C400FCF75EFA204602B070BD0724EDE70824CD
:10A4D400EBE70E24F6E700BFB82A0020C8330020BB
:10A4E40035F10200B7F0020017F1020038B501237C
:10A4F40003FA00F0430C5B04C3B918B10D4B1B689D
:10A50400184215D00C4B0025C3F804050B4B284604
:10A514001C88FDF71BFE240444F003040346084A88
:10A5240008492046FCF72CFA284638BD0725EDE7F4
:10A534000825EBE7C833002000F00140B82A0020CA
:10A54400CFF0020017F1020038B5012303FA00F03E
:10A55400430C5B04C3B918B10D4B1B68184215D0EA
:10A564000C4B0025C3F808050B4B28461C88FDF747
:10A57400EDFD240444F003040346084A0849204638
:10A58400FCF7FEF9284638BD0725EDE70825EBE77B
:10A59400C833002000F00140B82A0020E7F0020090
:10A5A40017F102002DE9F743002406460F4600F593
:10A5B400A0754FF48038A14604F150002B68800048
:10A5C40080B26BB1D6F8043308FA04F21A4207D009
:10A5D400C5F800902B680193019BD7E90031984797
:10A5E4000134042C05F10405E6D103B0BDE8F08381
:10A5F400F7B50579334C0C266E43A7193B7A002B2B
:10A604005ED1A2514A687A60467900681F46DAB280
:10A6140096424BD8020B53B2CE78002BA8BF03F15D
:10A624006047D2B24FEA5313B8BF02F00F0C4FEA9F
:10A634004616B4BF244F07F561474FEA8303F6B2C9
:10A6440003F16043B4BF07F80C6087F8006303F5B7
:10A654006143012602F01F0206FA02F2C3F88021C8
:10A664001A60D0F804254B7822F0030203F00303A8
:10A674001343C0F80435D0F808258B7822F0030280
:10A6840003F003031343C0F80835D0F810250B7802
:10A6940022F00F0203F00F031343C0F810350C230C
:10A6A40003FB05440020267203B0F0BD03F1500201
:10A6B400013340F8227050F822200192019AA6E753
:10A6C4000820F1E7CC33002014ED00E003680122F8
:10A6D4001A600379034A0C2101FB032302221A7234
:10A6E400704700BFCC3300200368044901221A617B
:10A6F40003790C2000FB03131A727047CC3300203B
:10A704000268110B38B54BB201245B0901F01F013B
:10A7140004FA01F120330B4C44F823100546D2F817
:10A72400003200244FF0FF33C2F80042C2F808336D
:10A73400FFF7DAFF2B79044A0C2101FB03231C7277
:10A7440038BD00BF00E100E0CC33002003680122E3
:10A75400DA60704737B54FF480348C4000687BB1C1
:10A7640001F150039B000025C550C3580193019B80
:10A77400C0F8044301F5A87140F8212003B030BDAE
:10A78400C0F80843F6E7F0B404689DF81070D4F8F4
:10A79400005240F201168E4025EA0605C4F8005224
:10A7A400D4F800522B43C4F800323B46F0BCFFF708
:10A7B400D1BF01F150039B0002689BB20020D0502E
:10A7C40082B0D3580193019B4FF4803303FA01F113
:10A7D400C2F8041302B0704702684FF4803303FADE
:10A7E40001F1C2F80813704701490248FFF7DABEC5
:10A7F400CC3300200080004001490248FFF7D2BE5C
:10A80400D833002000900040032812D8012A0BD12D
:10A81400012908D100F10E02D2B200EB40000C4B2A
:10A824001A540020704700220129F6D009D30229C6
:10A8340001D007207047064B00EB400018444270DB
:10A84400EFE7034B00EB400018448270E9E700BFD8
:10A85400E433002008B5012202210020FFF7D4FFD1
:10A8640008B1072810D1072202210120FFF7CCFFED
:10A8740008B1072808D100210A220846FFF7C4FFBF
:10A8840010B1072808BF002008BD00000388102B62
:10A8940010B502D0112B1ED010BD1A4C2168B1B9CD
:10A8A40001220846FFF7B0FF08B1072824D1072288
:10A8B40002210120FFF7A8FF08B107281CD10422B8
:10A8C40002210020FFF7A0FF08B1072814D1236854
:10A8D40001332360E0E70B4A1368013B1360002B4C
:10A8E400DAD1FFF7B7FF0028D6D0074B1B68002B3F
:10A8F400D2D0BDE810401847034B1B68002BE6D0AC
:10A904009847E4E7F4330020F033002033DF704746
:10A9140076DF70477ADF70477CDF70477FDF7047F0
:10A924008FDF7047B1DF704770477047014B0122DA
:10A934001A707047BC37002070470000024A136841
:10A9440001331360704700BFFC330020FCF7D2BA18
:10A954000000000038B503781C4C054683B901217A
:10A964004068FFF7FBFA08B1FCF7C4FA6A68238869
:10A9740012881344164A9BB2238013680133136070
:10A98400208802F083FE0FA3D3E9002302F0F6FF30
:10A994000022104B02F0F2FF00220F4B02F0A7FE40
:10A9A40000220E4B03F0A0F800220A4B02F0E6FF4F
:10A9B40002F083FE0A4B80B2012220801A7038BD57
:10A9C400AFF30080CDCCCCCCCCCC2C3F04340020D5
:10A9D40068350020000059400080614000805140EB
:10A9E400BD3800200388212B13B5044631D017D875
:10A9F400112B20D0132B34D0102B28D1214B2249DA
:10AA04001888000440F00300FBF7ACFF1F4BA1883B
:10AA14001F48198002F0BAF9C8B1FCF76BFA16E0C6
:10AA2400522B26D0562B01D03B2B10D11321A088BA
:10AA3400FFF76EFFF0E7134B16491888000440F047
:10AA44000300FBF78FFF114B4FF6FF721A8002B021
:10AA540010BD02A9002321F8043D8088FFF760FFA0
:10AA6400DAE70A4800231A4685210088FFF756FFD3
:10AA7400D2E7064800231A4619460088FFF752FF1A
:10AA8400CAE700BFB82A0020D4F10200262B002018
:10AA9400B0370020DEF1020070B51F4C00222260A6
:10AAA400C9B1012908D14FF6FF711C48FCF7E6FC37
:10AAB400FCF738FD1A4B18602368B3F57A7F21D967
:10AAC400226842F20F739A421CD8164A1378013353
:10AAD400DBB2137070BDFCF725FD134D28600F48E1
:10AAE400FCF710FD064608B1FCF704FA0C4B286885
:10AAF4001968FCF71DFD2060002EDDD03046FCF700
:10AB0400F9F9D9E7226842F210739A4282BF054BE1
:10AB140006221A70DEE700BFC03800205437002038
:10AB240028340020F83300202C3400200C4B4A88B1
:10AB34001B889A4212D10A8840F677239A420DD193
:10AB44008B88084A0849033B9BB21380074A108844
:10AB540000041A4640F00300FBF712BF704700BF21
:10AB6400262B0020242B002006F20200B82A002005
:10AB740008B503784BB9054B3B211888FFF7C8FE8D
:10AB840018B1BDE80840FCF7B5B908BD262B002074
:10AB94000378012BF7B52FD003D3022B2CD003B0AD
:10ABA400F0BD174C174D20782844FCF799FD237805
:10ABB4000133DBB21D44237015F8012C0A2A03D09B
:10ABC400114A12889A42EAD8104D0E4E104F23783B
:10ABD40002AA314622F8023D38462B8802F0BEFA1A
:10ABE400082806D01128F2D0052802D008B1FCF7B5
:10ABF40081F900232370D2E74068FCF77BF9CEE7A4
:10AC04002635002031340020242B0020262B002060
:10AC1400282B002038B5054D044645F001054FF4B6
:10AC24007A40A847013CFAD138BD00BF00F20200C7
:10AC3400FCF760B908B50849084801F08BFF08B172
:10AC4400FCF758F9F721054801F099FF18B1BDE860
:10AC54000840FCF74FB908BD31AB0200743700203F
:10AC64001FB5114A10685168127A01AB03C30F492A
:10AC74001A700F4801238DF80A30FFF7CFF808B196
:10AC8400FCF738F901A90020FFF70AF908B1FCF72D
:10AC940031F901210748FFF761F908B1FCF72AF9F6
:10ACA40005B05DF804FB00BF7CF1020059A9020065
:10ACB400F4F10200003400202DE9F04F8BB002784B
:10ACC4003D4B049301923D4B42780292002290F84E
:10ACD400028090F803900391059314461546164696
:10ACE400174618466FF0030A4FF0080C4FF00E0E8B
:10ACF40001990AFB02F301FA02FB1C331BF0800FDB
:10AD0400029914BF0EFA03FB0CFA03FB47EA0B0784
:10AD140001FA02FB1BF0800F14BF0EFA03FB0CFABE
:10AD240003FB46EA0B0608FA02FB1BF0800F14BF74
:10AD34000EFA03FB0CFA03FB45EA0B0509FA02FBC6
:10AD44001BF0800F02F1010214BF0EFA03F30CFA98
:10AD540003F3082A44EA0304CAD1CDE90676CDE90F
:10AD640008540426002306ADBDF80C2016FB02345B
:10AD740055F8232001334FEA3242042B40F82420B3
:10AD8400F2D10023C0E92033C0E92233C0E92433DF
:10AD94000B4B1B786BB10B4C217801F0FF0241B9CE
:10ADA400262104A8FFF7DCF908B1FCF7A3F8012376
:10ADB40023700BB0BDE8F08F24360020BC36002091
:10ADC4001F2B00202535002073B500230446ADF861
:10ADD40004308DF806300DF10302431E023012F8E0
:10ADE400011F13F8015F294483421170F7D13349DD
:10ADF40001A803F035F9064600285DD1E1782379EE
:10AE04002F4D304801EB810103EB830301EB8102F9
:10AE14005900637901EB82011944C9B2697003F0E6
:10AE240071F8A179E379284801EB810103EB8303ED
:10AE340001EB81025900237A01EB82011944C9B262
:10AE4400297003F05FF8617AA37A204801EB81014D
:10AE540003EB830301EB81025900E37A01EB8201E6
:10AE64001944C9B2A97003F04DF8217B637B1848DB
:10AE740001EB810103EB830301EB81025900A37B06
:10AE8400144C01EB82011944C9B2E97003F03AF899
:10AE9400114922780978914206D1F1B22846013647
:10AEA400FFF70AFF082EF8D10C4A237812789A4249
:10AEB40002BF0B4B00221A7002B070BDB2F2020046
:10AEC40027350020B6F20200C1F20200CCF20200E3
:10AED400D7F20200F8330020023400201C2B00209B
:10AEE400303400202DE9F0470378C0B004466D46A5
:10AEF4007BBBDFF88C90DFF88CA02E46A28AA6EBF1
:10AF0400050842450AD82369134413F8013C0D2B64
:10AF14001FD10A20FCF7FAFB1128F9E7236913F87B
:10AF24000800FCF7F3FB236913F808303370074675
:10AF340068B11128F2D0B9F80000000440F0010013
:10AF44003A465146FBF712FD3846FBF7D3FF01366C
:10AF5400D4E70A4802F0D6FFA18A0DF103035A1B75
:10AF6400914205DC2846FFF72FFF40B0BDE8F0878B
:10AF74001A78303A03F8012BF1E700BFD4F202004B
:10AF8400B82A0020E2F20200074A38B51368074DD8
:10AF9400013313600024E1B228460134FFF78CFE2C
:10AFA400082CF8D138BD00BFFC3300202735002021
:10AFB40038B5094D094800246C712C71AC71EC71E1
:10AFC400FDF77AFB0435E1B228460134FFF774FE3D
:10AFD400082CF8D138BD00BF27350020C8F1020085
:10AFE400000000002DE98048AD4D0FCDB1B005AC97
:10AFF4000FC495E80300AB4BAB4A01934FF4807345
:10B0040084E80300CDE903230293A84A072301A996
:10B0140005A8FCF70DFB08B1FBF76CFF4FF40041EA
:10B024000020FBF7D7FA08B1FBF764FFFBF702FA3D
:10B03400FCF7E2F908B1FBF75DFFFDF73DF808B155
:10B04400FBF758FF02F01CF908B1FBF753FF00238C
:10B0540005A90120059302F0E7F908B1FBF74AFFBF
:10B0640005A802F0A9FA08B1FBF744FF11239048A0
:10B074008DF8043003F01BF88D4982B201A8FFF764
:10B084004BFC08B1FBF736FF0822002105A802F0AB
:10B0940092FF884A4FF0C87305A8CDE90523FFF74E
:10B0A40039FC08B1FBF726FFFFF7C4FD824B834848
:10B0B400059305A901F058FE08B1FBF71BFF042214
:10B0C40000210DEB020002F076FF7D4B7D480193D9
:10B0D40001A901F05BFF08B1FBF70CFFAC220021D2
:10B0E40005A802F068FF062202238DF8172001222A
:10B0F40075498DF81430ADF8602000238DF8902048
:10B1040040228DF816301991CDE9272305A96F4BFC
:10B114006F482E9301F005F908B1FBF7EBFE01210E
:10B124006B4801F0FBF81C22002105A802F043FF44
:10B1340000234FF42032CDE90532ADF822304FF42C
:10B1440070228DF82430634B07920A930322624BDA
:10B154008DF8202005A80B9301F0B8FB08B1FBF78C
:10B16400C9FE5E4D0FCD05AC0FC42B6823601A23B6
:10B174008DF818300F238DF817304FF0C053089313
:10B184005749002305A88DF824308DF81E30FEF7AA
:10B1940051FF08B1FBF7AEFE524A53480121FCF7B8
:10B1A4005BF9524A52480121FCF756F9514A524878
:10B1B4000121FCF751F908B1FBF79CFE40F26662ED
:10B1C40001214E48FBF712FE08B1FBF793FE4C4DEC
:10B1D400FBF760FEFBF774FE0FCD05AC0FC42B68C4
:10B1E4002360484A4848012305A98DF81C30FDF71F
:10B1F400EFF808B1FBF77EFE4348FDF723FAFFF7AB
:10B204002FFD4FF0A04303214FF00052C3F87417F1
:10B214002F48C3F8082501F0F6F808B1FBF76AFED9
:10B224003A4CFF23E370FEF7EDFE08B1FBF762FE34
:10B234004FF47A70FFF7EEFC354D2B78002B00F0BD
:10B244008380344B1A88592A40F286800023637025
:10B254002370A370FF23E3702F4B2B4D00221A7031
:10B264009A46642200212846FDF7A8F81128F8D050
:10B27400264E0025E9B230460135FFF71DFD082DA5
:10B28400F8D140F6B830254DFFF7C4FCFBF702FEB9
:10B29400002323482B7002F035FE224E44E000BF09
:10B2A40088F10200BD370020C438002095AB0200AD
:10B2B40034F2020010003C0051A90200B037002013
:10B2C400E9AE0200282B0020202B00202DA902002B
:10B2D4006C35002075AB020035AC0200A0F1020011
:10B2E4002FA902003DA9020028F202008DAF02003E
:10B2F40024F2020041A90200D0F10200ECF10200A4
:10B30400B4F1020031A90200C8F10200273500207F
:10B31400BD38002004340020BC370020F83300205E
:10B3240047F2020056F202002978304602F0EAFDA4
:10B334002B78062BF8D8DFE813F03A005C00AE0057
:10B34400170177026D039C04FEF75CFE00283FF4AE
:10B3540074AFFBF7CFFD70E71A88452A06D90A2394
:10B3640063702370FF23A370002374E71A88312AC3
:10B3740004D90A23FF2263702270F4E71A881D2A75
:10B3840005D9FF236370C82323700A23EBE71A88C7
:10B39400092A03D9FF2363706423F5E71B880A2B6A
:10B3A4003FF65AAFFF23637001232370DBE7634842
:10B3B400624EFDF747F900238AF800306422002129
:10B3C4003046FCF7FBFF1128F8D00026FF235C4F22
:10B3D40066702670A670E370F1B238460136FFF746
:10B3E4006BFC082EF8D1574B1B782A789A42FCD074
:10B3F40053E7002363712371A371E3715248DFF8AB
:10B404005C81524F02F07EFD2B7898F800209A421E
:10B414007FF443AF4948494EFDF714F900238AF8F5
:10B424000030642200213046FCF7C8FF1128F8D010
:10B43400DFF80C910026F1B248460136FFF73CFCD8
:10B44400082EF8D100224FF4A4714148FCF716F8F5
:10B454003B68092BFCD900263D483E60FCF752F8B6
:10B464003648DFF8FC90FDF727F9F1B2484601367B
:10B47400FFF722FC082EF8D100224FF4A4713548BE
:10B48400FBF7FCFF3B68092BFCD9002331483B60E8
:10B49400FCF738F8B8E7002363712371A371E371F3
:10B4A4002D48DFF8C080294F02F02CFD2B7898F846
:10B4B40000209A427FF4F1AE2048204EFDF7C2F8F6
:10B4C40000238AF80030642200213046FCF776FF1E
:10B4D4001128F8D0DFF868900026F1B2484601360A
:10B4E400FFF7EAFB082EF8D100224FF4A4711848A4
:10B4F400FBF7C4FF3B68312BFCD9002614483E609F
:10B50400FCF700F80D48DFF85890FDF7D5F8F1B2D4
:10B5140048460136FFF7D0FB082EF8D100224FF43D
:10B52400A4710C48FBF7AAFF3B68312BFCD900231C
:10B5340008483B60FBF7E6FFB8E700BFC8F102002C
:10B54400273500200234002064F20200FC3300207E
:10B55400483500200834002077F202001D2B00201B
:10B564002B3500204C2B0020A848A94F02F0CAFC20
:10B574002B783A789A427FF490AEA648DFF8A4B2CA
:10B58400FDF760F80026304602F080F880466078C7
:10B59400894602F07BF89BA3D3E9002302F0A4FAC6
:10B5A40042464B4602F0EAF941EC100B02F0C0FBB4
:10B5B40051EC100B02F081F86071207802F066F80B
:10B5C40090A3D3E9002302F08FFA42464B4602F0DF
:10B5D400D5F941EC100B02F0ABFB51EC100B02F06F
:10B5E4006CF82071A07802F051F886A3D3E9002307
:10B5F40002F07AFA42464B4602F0C0F941EC100BD5
:10B6040002F096FB51EC100B02F057F8A071E078B1
:10B6140002F03CF87BA3D3E9002302F065FA42462A
:10B624004B4602F0ABF941EC100B02F081FB51ECFC
:10B63400100B02F042F873A3D3E90023E0714946EA
:10B64400404602F051FA0022734B02F097F941ECA4
:10B65400100B02F06DFB51EC100B02F02EF84FF0C2
:10B6640000095FFA80F85FFA89F1584609F1010987
:10B67400FFF722FBB9F1080FF5D10023DFF894910D
:10B684008AF800301FFA88F8424600214846FCF741
:10B6940095FE1128F8D00420FFF7BCFA2B783A78ED
:10B6A4009A4203D10136FF2E7FF46DAF00224FF48E
:10B6B400A4715A48FBF7E2FE594B1A68452AFCD993
:10B6C400002256481A60FBF71DFFDFF858B1FF2629
:10B6D400304601F0DBFF80466078894601F0D6FFF2
:10B6E40048A3D3E9002302F0FFF942464B4602F097
:10B6F40045F941EC100B02F01BFB51EC100B01F06F
:10B70400DCFF6071207801F0C1FF3EA3D3E9002380
:10B7140002F0EAF942464B4602F030F941EC100BD4
:10B7240002F006FB51EC100B01F0C7FF2071A0786A
:10B7340001F0ACFF33A3D3E9002302F0D5F942466C
:10B744004B4602F01BF941EC100B02F0F1FA51ECFC
:10B75400100B01F0B2FFA071E07801F097FF29A36C
:10B76400D3E9002302F0C0F942464B4602F006F941
:10B7740041EC100B02F0DCFA51EC100B01F09DFFD0
:10B7840020A3D3E90023E0714946404602F0ACF916
:10B794000022214B02F0F2F841EC100B02F0C8FA3F
:10B7A40051EC100B01F089FF4FF000095FFA80F8AB
:10B7B4005FFA89F1584609F10109FFF77DFAB9F1F9
:10B7C400080FF5D10023DFF84C908AF800301FFAF7
:10B7D40088F8424600214846FCF7F0FD1128F8D0CD
:10B7E4000420FFF717FA2B783A789A4202D1013EE7
:10B7F4007FF46EAFFFF7DCFB6420FFF70BFAB7E6CC
:10B80400AFF300800000000000E06F408CF2020003
:10B814004D2B0020C8F1020000005940483500209B
:10B82400FC3300202B3500207348734EFCF70AFFCD
:10B8340000238AF80030642200213046FCF7BEFD64
:10B844001128F8D005AF012660787043C01001F0CC
:10B854001DFF41EC100B02F06BFA51EC100B01F0E0
:10B864002CFF787020787043C01001F00FFF41EC7A
:10B87400100B02F05DFA51EC100B01F01EFF387052
:10B88400A0787043C01001F001FF41EC100B02F0EE
:10B894004FFA51EC100B01F010FFB870E0787043D0
:10B8A400C01001F0F3FE41EC100B02F041FA51EC30
:10B8B400100B01F002FF0136092EF87007F104079E
:10B8C400C2D1002605ABF1B203EB86000136FFF7C7
:10B8D400F3F9082EF6D1494FDFF83081B9462B78B9
:10B8E4003A789A427FF4D9AC0C9B0D93002305AAB5
:10B8F4001A44043B9169D16113F11C0FF7D10D9BDC
:10B904000593002605ABF1B203EB86000136FFF781
:10B91400D3F9082EF6D198F80030002B48D105AEA3
:10B924004FF0010B60780BFB00F0C01001F0AEFE8D
:10B9340041EC100B02F0FCF951EC100B01F0BDFED0
:10B94400707020780BFB00F0C01001F09FFE41ECFA
:10B95400100B02F0EDF951EC100B01F0AEFE30705B
:10B96400A0780BFB00F0C01001F090FE41EC100B2E
:10B9740002F0DEF951EC100B01F09FFEB070E0789C
:10B984000BFB00F0C01001F081FE41EC100B02F043
:10B99400CFF951EC100B01F090FE0BF1010BBBF150
:10B9A400090FF07006F10406BCD1012388F80030B9
:10B9B40000224FF4A4711248FBF760FD114B1A6882
:10B9C400092AFCD900260E481E60FBF79BFD2B7844
:10B9D40099F800209A427FF460ACDFF834B005ABEC
:10B9E40033445846D978043602F08CFA202EF6D126
:10B9F400054802F087FA72E7C8F102001C2B002008
:10BA040008340020FC330020D4F20200303400203B
:10BA14009FF202002022002105A802F0CCFA802324
:10BA2400A2488DF81B3002F06DFAA14F00262B7846
:10BA34003A789A427FF431AC304601F027FE8046D2
:10BA44006078894601F022FE96A3D3E9002302F030
:10BA54004BF842464B4601F091FF41EC100B02F0CB
:10BA640067F951EC100B01F028FE8DF815002078D1
:10BA740001F00CFE8BA3D3E9002302F035F8424613
:10BA84004B4601F07BFF41EC100B02F051F951ECF5
:10BA9400100B01F012FE8DF81400A07801F0F6FDF1
:10BAA40080A3D3E9002302F01FF842464B4601F07D
:10BAB40065FF41EC100B02F03BF951EC100B01F067
:10BAC400FCFD8DF81600E07801F0E0FD75A3D3E9E4
